{
  "contractName": "DogToken",
  "abi": [
    {
      "inputs": [
        {
          "internalType": "contract ERC721",
          "name": "_contract",
          "type": "address"
        }
      ],
      "payable": false,
      "stateMutability": "nonpayable",
      "type": "constructor"
    },
    {
      "constant": false,
      "inputs": [],
      "name": "registerBreeder",
      "outputs": [],
      "payable": false,
      "stateMutability": "nonpayable",
      "type": "function"
    },
    {
      "constant": false,
      "inputs": [
        {
          "internalType": "uint256",
          "name": "amount",
          "type": "uint256"
        },
        {
          "internalType": "address",
          "name": "beneficiary",
          "type": "address"
        }
      ],
      "name": "creditBalance",
      "outputs": [],
      "payable": false,
      "stateMutability": "nonpayable",
      "type": "function"
    },
    {
      "constant": false,
      "inputs": [
        {
          "internalType": "uint256",
          "name": "tokenId",
          "type": "uint256"
        }
      ],
      "name": "deposit",
      "outputs": [
        {
          "internalType": "bool",
          "name": "",
          "type": "bool"
        }
      ],
      "payable": false,
      "stateMutability": "nonpayable",
      "type": "function"
    },
    {
      "constant": false,
      "inputs": [
        {
          "internalType": "uint256",
          "name": "tokenId",
          "type": "uint256"
        }
      ],
      "name": "withdrawal",
      "outputs": [],
      "payable": false,
      "stateMutability": "nonpayable",
      "type": "function"
    },
    {
      "constant": false,
      "inputs": [
        {
          "internalType": "uint256",
          "name": "tokenId",
          "type": "uint256"
        },
        {
          "internalType": "uint256",
          "name": "_salePrice",
          "type": "uint256"
        }
      ],
      "name": "putToSale",
      "outputs": [],
      "payable": false,
      "stateMutability": "nonpayable",
      "type": "function"
    },
    {
      "constant": false,
      "inputs": [
        {
          "internalType": "uint256",
          "name": "tokenId",
          "type": "uint256"
        }
      ],
      "name": "buyFixedPrice",
      "outputs": [],
      "payable": false,
      "stateMutability": "nonpayable",
      "type": "function"
    },
    {
      "constant": false,
      "inputs": [
        {
          "internalType": "uint256",
          "name": "tokenId",
          "type": "uint256"
        }
      ],
      "name": "findFight",
      "outputs": [],
      "payable": false,
      "stateMutability": "nonpayable",
      "type": "function"
    },
    {
      "constant": false,
      "inputs": [
        {
          "internalType": "uint256",
          "name": "tokenA",
          "type": "uint256"
        },
        {
          "internalType": "uint256",
          "name": "tokenB",
          "type": "uint256"
        },
        {
          "internalType": "uint256",
          "name": "bet",
          "type": "uint256"
        }
      ],
      "name": "fight",
      "outputs": [],
      "payable": false,
      "stateMutability": "nonpayable",
      "type": "function"
    },
    {
      "constant": false,
      "inputs": [
        {
          "internalType": "uint256",
          "name": "tokenA",
          "type": "uint256"
        },
        {
          "internalType": "uint256",
          "name": "tokenB",
          "type": "uint256"
        }
      ],
      "name": "breed",
      "outputs": [],
      "payable": false,
      "stateMutability": "nonpayable",
      "type": "function"
    },
    {
      "constant": false,
      "inputs": [
        {
          "internalType": "uint256",
          "name": "tokenId",
          "type": "uint256"
        },
        {
          "internalType": "uint256",
          "name": "startPrice",
          "type": "uint256"
        },
        {
          "internalType": "uint256",
          "name": "expirationDate",
          "type": "uint256"
        }
      ],
      "name": "createAuction",
      "outputs": [],
      "payable": false,
      "stateMutability": "nonpayable",
      "type": "function"
    },
    {
      "constant": false,
      "inputs": [
        {
          "internalType": "uint256",
          "name": "auctionId",
          "type": "uint256"
        },
        {
          "internalType": "uint256",
          "name": "bid",
          "type": "uint256"
        }
      ],
      "name": "bidOnAuction",
      "outputs": [],
      "payable": false,
      "stateMutability": "nonpayable",
      "type": "function"
    },
    {
      "constant": false,
      "inputs": [
        {
          "internalType": "uint256",
          "name": "auctionId",
          "type": "uint256"
        }
      ],
      "name": "claimAuction",
      "outputs": [],
      "payable": false,
      "stateMutability": "nonpayable",
      "type": "function"
    }
  ],
  "bytecode": "0x608060405234801561001057600080fd5b506040516120423803806120428339818101604052602081101561003357600080fd5b8101908080519060200190929190505050806000806101000a81548173ffffffffffffffffffffffffffffffffffffffff021916908373ffffffffffffffffffffffffffffffffffffffff16021790555050611fae806100946000396000f3fe608060405234801561001057600080fd5b50600436106100a45760003560e01c806318b127fd146100a9578063308c8a1a146100f757806375daa1fa14610125578063835fc6ca146101535780639aafc6c9146101815780639f635120146101af578063ab977c2a146101e7578063b34a84621461021f578063b6b55f2514610229578063cda4beef1461026f578063d9ecad7b146102b1578063f669ddaf146102e9575b600080fd5b6100f5600480360360408110156100bf57600080fd5b8101908080359060200190929190803573ffffffffffffffffffffffffffffffffffffffff16906020019092919050505061032b565b005b6101236004803603602081101561010d57600080fd5b810190808035906020019092919050505061037c565b005b6101516004803603602081101561013b57600080fd5b8101908080359060200190929190505050610469565b005b61017f6004803603602081101561016957600080fd5b810190808035906020019092919050505061075f565b005b6101ad6004803603602081101561019757600080fd5b810190808035906020019092919050505061098c565b005b6101e5600480360360408110156101c557600080fd5b810190808035906020019092919080359060200190929190505050610bc3565b005b61021d600480360360408110156101fd57600080fd5b810190808035906020019092919080359060200190929190505050611079565b005b610227611154565b005b6102556004803603602081101561023f57600080fd5b81019080803590602001909291905050506111ae565b604051808215151515815260200191505060405180910390f35b6102af6004803603606081101561028557600080fd5b81019080803590602001909291908035906020019092919080359060200190929190505050611461565b005b6102e7600480360360408110156102c757600080fd5b810190808035906020019092919080359060200190929190505050611675565b005b610329600480360360608110156102ff57600080fd5b81019080803590602001909291908035906020019092919080359060200190929190505050611844565b005b81600360008373ffffffffffffffffffffffffffffffffffffffff1673ffffffffffffffffffffffffffffffffffffffff168152602001908152602001600020600082825401925050819055505050565b6001600082815260200190815260200160002060000160009054906101000a900473ffffffffffffffffffffffffffffffffffffffff163373ffffffffffffffffffffffffffffffffffffffff168173ffffffffffffffffffffffffffffffffffffffff1614610437576040517f08c379a0000000000000000000000000000000000000000000000000000000008152600401808060200182810382526025815260200180611ebc6025913960400191505060405180910390fd5b600180600084815260200190815260200160002060000160146101000a81548160ff0219169083151502179055505050565b6001600082815260200190815260200160002060010154600360003373ffffffffffffffffffffffffffffffffffffffff1673ffffffffffffffffffffffffffffffffffffffff168152602001908152602001600020541015610517576040517f08c379a0000000000000000000000000000000000000000000000000000000008152600401808060200182810382526023815260200180611f096023913960400191505060405180910390fd5b6000600160008381526020019081526020016000206001015414156105a4576040517f08c379a00000000000000000000000000000000000000000000000000000000081526004018080602001828103825260158152602001807f416e696d616c206973206e6f74206f6e2073616c65000000000000000000000081525060200191505060405180910390fd5b6001600082815260200190815260200160002060010154600360003373ffffffffffffffffffffffffffffffffffffffff1673ffffffffffffffffffffffffffffffffffffffff168152602001908152602001600020600082825403925050819055506001600082815260200190815260200160002060010154600360006001600085815260200190815260200160002060000160009054906101000a900473ffffffffffffffffffffffffffffffffffffffff1673ffffffffffffffffffffffffffffffffffffffff1673ffffffffffffffffffffffffffffffffffffffff1681526020019081526020016000206000828254019250508190555060405180606001604052803373ffffffffffffffffffffffffffffffffffffffff16815260200160001515815260200160008152506001600083815260200190815260200160002060008201518160000160006101000a81548173ffffffffffffffffffffffffffffffffffffffff021916908373ffffffffffffffffffffffffffffffffffffffff16021790555060208201518160000160146101000a81548160ff0219169083151502179055506040820151816001015590505050565b6001600082815260200190815260200160002060000160009054906101000a900473ffffffffffffffffffffffffffffffffffffffff163373ffffffffffffffffffffffffffffffffffffffff168173ffffffffffffffffffffffffffffffffffffffff161461081a576040517f08c379a0000000000000000000000000000000000000000000000000000000008152600401808060200182810382526025815260200180611ebc6025913960400191505060405180910390fd5b6000809054906101000a900473ffffffffffffffffffffffffffffffffffffffff1673ffffffffffffffffffffffffffffffffffffffff166323b872dd306000809054906101000a900473ffffffffffffffffffffffffffffffffffffffff16856040518463ffffffff1660e01b8152600401808473ffffffffffffffffffffffffffffffffffffffff1673ffffffffffffffffffffffffffffffffffffffff1681526020018373ffffffffffffffffffffffffffffffffffffffff1673ffffffffffffffffffffffffffffffffffffffff1681526020018281526020019350505050600060405180830381600087803b15801561091757600080fd5b505af115801561092b573d6000803e3d6000fd5b5050505060016000838152602001908152602001600020600080820160006101000a81549073ffffffffffffffffffffffffffffffffffffffff02191690556000820160146101000a81549060ff0219169055600182016000905550505050565b6002600082815260200190815260200160002060050160009054906101000a900473ffffffffffffffffffffffffffffffffffffffff1673ffffffffffffffffffffffffffffffffffffffff163373ffffffffffffffffffffffffffffffffffffffff1614610a63576040517f08c379a000000000000000000000000000000000000000000000000000000000815260040180806020018281038252601f8152602001807f53656e646572206973206e6f742074686520686967686573742062696465720081525060200191505060405180910390fd5b42600260008381526020019081526020016000206003015410610aee576040517f08c379a00000000000000000000000000000000000000000000000000000000081526004018080602001828103825260158152602001807f41756374696f6e206973206e6f7420636c6f736564000000000000000000000081525060200191505060405180910390fd5b60405180606001604052803373ffffffffffffffffffffffffffffffffffffffff1681526020016000151581526020016000815250600160006002600085815260200190815260200160002060010154815260200190815260200160002060008201518160000160006101000a81548173ffffffffffffffffffffffffffffffffffffffff021916908373ffffffffffffffffffffffffffffffffffffffff16021790555060208201518160000160146101000a81548160ff0219169083151502179055506040820151816001015590505050565b42600260008481526020019081526020016000206003015411610c4e576040517f08c379a00000000000000000000000000000000000000000000000000000000081526004018080602001828103825260118152602001807f41756374696f6e20697320636c6f73656400000000000000000000000000000081525060200191505060405180910390fd5b80600360003373ffffffffffffffffffffffffffffffffffffffff1673ffffffffffffffffffffffffffffffffffffffff168152602001908152602001600020541015610ce6576040517f08c379a0000000000000000000000000000000000000000000000000000000008152600401808060200182810382526027815260200180611f536027913960400191505060405180910390fd5b60026000838152602001908152602001600020600201548111610d54576040517f08c379a0000000000000000000000000000000000000000000000000000000008152600401808060200182810382526027815260200180611f2c6027913960400191505060405180910390fd5b80600360003373ffffffffffffffffffffffffffffffffffffffff1673ffffffffffffffffffffffffffffffffffffffff1681526020019081526020016000206000828254039250508190555060026000838152602001908152602001600020600201548103600360006002600086815260200190815260200160002060040160009054906101000a900473ffffffffffffffffffffffffffffffffffffffff1673ffffffffffffffffffffffffffffffffffffffff1673ffffffffffffffffffffffffffffffffffffffff168152602001908152602001600020600082825401925050819055506002600083815260200190815260200160002060020154600360006002600086815260200190815260200160002060050160009054906101000a900473ffffffffffffffffffffffffffffffffffffffff1673ffffffffffffffffffffffffffffffffffffffff1673ffffffffffffffffffffffffffffffffffffffff168152602001908152602001600020600082825401925050819055506040518060c0016040528060011515815260200160026000858152602001908152602001600020600101548152602001828152602001600260008581526020019081526020016000206003015481526020016002600085815260200190815260200160002060040160009054906101000a900473ffffffffffffffffffffffffffffffffffffffff1673ffffffffffffffffffffffffffffffffffffffff1681526020013373ffffffffffffffffffffffffffffffffffffffff168152506002600084815260200190815260200160002060008201518160000160006101000a81548160ff02191690831515021790555060208201518160010155604082015181600201556060820151816003015560808201518160040160006101000a81548173ffffffffffffffffffffffffffffffffffffffff021916908373ffffffffffffffffffffffffffffffffffffffff16021790555060a08201518160050160006101000a81548173ffffffffffffffffffffffffffffffffffffffff021916908373ffffffffffffffffffffffffffffffffffffffff1602179055509050505050565b6001600083815260200190815260200160002060000160009054906101000a900473ffffffffffffffffffffffffffffffffffffffff163373ffffffffffffffffffffffffffffffffffffffff168173ffffffffffffffffffffffffffffffffffffffff1614611134576040517f08c379a0000000000000000000000000000000000000000000000000000000008152600401808060200182810382526025815260200180611ebc6025913960400191505060405180910390fd5b816001600085815260200190815260200160002060010181905550505050565b6001600460003373ffffffffffffffffffffffffffffffffffffffff1673ffffffffffffffffffffffffffffffffffffffff16815260200190815260200160002060006101000a81548160ff021916908315150217905550565b60008073ffffffffffffffffffffffffffffffffffffffff166001600084815260200190815260200160002060000160009054906101000a900473ffffffffffffffffffffffffffffffffffffffff1673ffffffffffffffffffffffffffffffffffffffff1614611287576040517f08c379a00000000000000000000000000000000000000000000000000000000081526004018080602001828103825260178152602001807f546f6b656e20696420616c72656164792065786973747300000000000000000081525060200191505060405180910390fd5b6000809054906101000a900473ffffffffffffffffffffffffffffffffffffffff1673ffffffffffffffffffffffffffffffffffffffff166323b872dd6000809054906101000a900473ffffffffffffffffffffffffffffffffffffffff1630856040518463ffffffff1660e01b8152600401808473ffffffffffffffffffffffffffffffffffffffff1673ffffffffffffffffffffffffffffffffffffffff1681526020018373ffffffffffffffffffffffffffffffffffffffff1673ffffffffffffffffffffffffffffffffffffffff1681526020018281526020019350505050600060405180830381600087803b15801561138457600080fd5b505af1158015611398573d6000803e3d6000fd5b5050505060405180606001604052803373ffffffffffffffffffffffffffffffffffffffff16815260200160001515815260200160008152506001600084815260200190815260200160002060008201518160000160006101000a81548173ffffffffffffffffffffffffffffffffffffffff021916908373ffffffffffffffffffffffffffffffffffffffff16021790555060208201518160000160146101000a81548160ff0219169083151502179055506040820151816001015590505060019050919050565b6001600084815260200190815260200160002060000160009054906101000a900473ffffffffffffffffffffffffffffffffffffffff163373ffffffffffffffffffffffffffffffffffffffff168173ffffffffffffffffffffffffffffffffffffffff161461151c576040517f08c379a0000000000000000000000000000000000000000000000000000000008152600401808060200182810382526025815260200180611ebc6025913960400191505060405180910390fd5b6040518060c001604052806001151581526020018581526020018481526020018381526020013373ffffffffffffffffffffffffffffffffffffffff168152602001600073ffffffffffffffffffffffffffffffffffffffff1681525060026000600554815260200190815260200160002060008201518160000160006101000a81548160ff02191690831515021790555060208201518160010155604082015181600201556060820151816003015560808201518160040160006101000a81548173ffffffffffffffffffffffffffffffffffffffff021916908373ffffffffffffffffffffffffffffffffffffffff16021790555060a08201518160050160006101000a81548173ffffffffffffffffffffffffffffffffffffffff021916908373ffffffffffffffffffffffffffffffffffffffff16021790555090505060056000815480929190600101919050555050505050565b600460003373ffffffffffffffffffffffffffffffffffffffff1673ffffffffffffffffffffffffffffffffffffffff16815260200190815260200160002060009054906101000a900460ff16611717576040517f08c379a0000000000000000000000000000000000000000000000000000000008152600401808060200182810382526021815260200180611e9b6021913960400191505060405180910390fd5b6000809054906101000a900473ffffffffffffffffffffffffffffffffffffffff1673ffffffffffffffffffffffffffffffffffffffff16637f3eda1383836040518363ffffffff1660e01b81526004018083815260200182815260200192505050602060405180830381600087803b15801561179357600080fd5b505af11580156117a7573d6000803e3d6000fd5b505050506040513d60208110156117bd57600080fd5b8101908080519060200190929190505050611840576040517f08c379a000000000000000000000000000000000000000000000000000000000815260040180806020018281038252601d8152602001807f4661696c20746f206d696e74206e65772045524337323120746f6b656e00000081525060200191505060405180910390fd5b5050565b3373ffffffffffffffffffffffffffffffffffffffff166001600085815260200190815260200160002060000160009054906101000a900473ffffffffffffffffffffffffffffffffffffffff1673ffffffffffffffffffffffffffffffffffffffff16148061191557503373ffffffffffffffffffffffffffffffffffffffff166001600084815260200190815260200160002060000160009054906101000a900473ffffffffffffffffffffffffffffffffffffffff1673ffffffffffffffffffffffffffffffffffffffff16145b61196a576040517f08c379a0000000000000000000000000000000000000000000000000000000008152600401808060200182810382526028815260200180611ee16028913960400191505060405180910390fd5b80600360006001600087815260200190815260200160002060000160009054906101000a900473ffffffffffffffffffffffffffffffffffffffff1673ffffffffffffffffffffffffffffffffffffffff1673ffffffffffffffffffffffffffffffffffffffff1681526020019081526020016000205410158015611a64575080600360006001600086815260200190815260200160002060000160009054906101000a900473ffffffffffffffffffffffffffffffffffffffff1673ffffffffffffffffffffffffffffffffffffffff1673ffffffffffffffffffffffffffffffffffffffff1681526020019081526020016000205410155b611ab9576040517f08c379a0000000000000000000000000000000000000000000000000000000008152600401808060200182810382526032815260200180611e336032913960400191505060405180910390fd5b600115156001600085815260200190815260200160002060000160149054906101000a900460ff161515148015611b175750600115156001600084815260200190815260200160002060000160149054906101000a900460ff161515145b611b6c576040517f08c379a0000000000000000000000000000000000000000000000000000000008152600401808060200182810382526036815260200180611e656036913960400191505060405180910390fd5b607d60fb42604051602001808281526020019150506040516020818303038152906040528051906020012060001c81611ba157fe5b0660ff161015611cee57611bb48361075f565b60006001600084815260200190815260200160002060000160146101000a81548160ff02191690831515021790555080600360006001600087815260200190815260200160002060000160009054906101000a900473ffffffffffffffffffffffffffffffffffffffff1673ffffffffffffffffffffffffffffffffffffffff1673ffffffffffffffffffffffffffffffffffffffff1681526020019081526020016000206000828254039250508190555080600360006001600086815260200190815260200160002060000160009054906101000a900473ffffffffffffffffffffffffffffffffffffffff1673ffffffffffffffffffffffffffffffffffffffff1673ffffffffffffffffffffffffffffffffffffffff16815260200190815260200160002060008282540192505081905550611e2d565b611cf78261075f565b60006001600085815260200190815260200160002060000160146101000a81548160ff02191690831515021790555080600360006001600086815260200190815260200160002060000160009054906101000a900473ffffffffffffffffffffffffffffffffffffffff1673ffffffffffffffffffffffffffffffffffffffff1673ffffffffffffffffffffffffffffffffffffffff1681526020019081526020016000206000828254039250508190555080600360006001600087815260200190815260200160002060000160009054906101000a900473ffffffffffffffffffffffffffffffffffffffff1673ffffffffffffffffffffffffffffffffffffffff1673ffffffffffffffffffffffffffffffffffffffff168152602001908152602001600020600082825401925050819055505b50505056fe4f6e65206f6620746865206f776e65727320686173206e6f7420656e6f75676820637265646974206f6e2062616c616e63655468652074776f206f776e6572732068617665206e6f742064656c63617265642074686520616e696d616c732063616e2066696768744f776e6572206973206e6f7420612072656769737465726564206272656564657253656e646572206973206e6f7420746865206f776e6572206f662074686520616e696d616c53656e646572206973206e6f74206f6e65206f66207468652074776f20646f6773206f776e657273427579657220686173206e6f7420656e6f75676820657468206f6e2062616c616e6365426964206973206c6f776572207468616e2063757272656e742061756374696f6e20707269636553656e64657220686173206e6f7420656e6f75676820637265646974206f6e2062616c616e6365a265627a7a723158200481e7dbe7dbcbc0c4e3acfd6861788e37f5c1bcf0875af42c9a55c1c7748ff664736f6c634300050d0032",
  "source": "pragma solidity ^0.5.0;\r\n\r\nimport \"../ERC721/ERC721.sol\";\r\n\r\ncontract DogToken {\r\n\r\n    ERC721 Contract721;\r\n\r\n    mapping (uint256 => Animal) private listAnimals;\r\n    mapping(uint256 => Auction) private listAuctions;\r\n    mapping (address => uint256) private balances;\r\n    mapping(address => bool) private breeder;\r\n    \r\n    uint256 nbAuctions;\r\n    uint256 nbAnimals;\r\n\r\n    constructor (ERC721 _contract) public {\r\n        Contract721 = _contract;\r\n    }\r\n\r\n    modifier onlyBreeder() {\r\n        require(breeder[msg.sender], \"Owner is not a registered breeder\");\r\n        _;\r\n    }\r\n    modifier onlyOwner(address owner) {\r\n        require(owner == msg.sender, \"Sender is not the owner of the animal\");\r\n        _;\r\n    }\r\n\r\n    struct Auction \r\n    {\r\n        bool open;\r\n        uint256 animalId;\r\n        uint256 currentPrice;\r\n        uint256 expirationDate;\r\n        address owner;\r\n        address lastBuyer;\r\n    }\r\n\r\n    struct Animal \r\n    {\r\n        address owner;\r\n        bool fight;\r\n        uint256 salePrice;\r\n    }\r\n\r\n    /*White list breeders*/\r\n    function registerBreeder() public {\r\n        breeder[msg.sender] = true;\r\n    }\r\n\r\n    /*Mint free 'eth' tokens*/\r\n    function creditBalance(uint256 amount, address beneficiary) public {\r\n        balances[beneficiary] += amount;\r\n    }\r\n\r\n    /*Register a new dog to its owner\r\n    Sender has to approve current contract to \r\n    retrieve tokens from ERC721 before calling deposit()*/\r\n    function deposit(uint256 tokenId) public returns(bool) {\r\n        require(listAnimals[tokenId].owner == address(0), \"Token id already exists\");\r\n        Contract721.transferFrom(address(Contract721), address(this), tokenId);\r\n        listAnimals[tokenId] = Animal(msg.sender, false, 0);\r\n        return true;\r\n    }\r\n\r\n    function withdrawal(uint256 tokenId) public onlyOwner(listAnimals[tokenId].owner) {\r\n        Contract721.transferFrom(address(this), address(Contract721), tokenId);\r\n        delete listAnimals[tokenId];\r\n    }\r\n\r\n    function putToSale(uint256 tokenId, uint256 _salePrice) public onlyOwner(listAnimals[tokenId].owner) {\r\n        listAnimals[tokenId].salePrice = _salePrice;\r\n    }\r\n\r\n    function buyFixedPrice(uint256 tokenId) public {\r\n        require(balances[msg.sender] >= listAnimals[tokenId].salePrice, \"Buyer has not enough eth on balance\");\r\n        require(listAnimals[tokenId].salePrice != 0, \"Animal is not on sale\");\r\n        balances[msg.sender] -= listAnimals[tokenId].salePrice;\r\n        balances[listAnimals[tokenId].owner] += listAnimals[tokenId].salePrice;\r\n        listAnimals[tokenId] = Animal(msg.sender, false, 0);\r\n    }\r\n\r\n    function findFight(uint256 tokenId) public onlyOwner(listAnimals[tokenId].owner) {\r\n        listAnimals[tokenId].fight = true;\r\n    }\r\n\r\n    function fight(uint256 tokenA, uint256 tokenB, uint256 bet) public {\r\n        require(listAnimals[tokenA].owner == msg.sender || listAnimals[tokenB].owner == msg.sender, \"Sender is not one of the two dogs owners\");\r\n        require(balances[listAnimals[tokenA].owner] >= bet && balances[listAnimals[tokenB].owner] >= bet, \"One of the owners has not enough credit on balance\");\r\n        require(listAnimals[tokenA].fight == true && listAnimals[tokenB].fight == true, \"The two owners have not delcared the animals can fight\");\r\n\r\n        if(uint8(uint256(keccak256(abi.encodePacked(block.timestamp)))%251) < 125) {\r\n            withdrawal(tokenA);\r\n            listAnimals[tokenB].fight = false;\r\n            balances[listAnimals[tokenA].owner] -= bet;\r\n            balances[listAnimals[tokenB].owner] += bet;\r\n        }\r\n        else {\r\n            withdrawal(tokenB);\r\n            listAnimals[tokenA].fight = false;\r\n            balances[listAnimals[tokenB].owner] -= bet;\r\n            balances[listAnimals[tokenA].owner] += bet;\r\n        }\r\n    }\r\n\r\n    function breed(uint256 tokenA, uint256 tokenB) public onlyBreeder() {\r\n        require(Contract721.mintNew(tokenA, tokenB), \"Fail to mint new ERC721 token\");\r\n    }\r\n\r\n     function createAuction(uint256 tokenId, uint startPrice, uint256 expirationDate) public onlyOwner(listAnimals[tokenId].owner) {\r\n        listAuctions[nbAuctions] = Auction(true, tokenId, startPrice, expirationDate, msg.sender, address(0));\r\n        nbAuctions++;\r\n    }\r\n\r\n    function bidOnAuction(uint256 auctionId, uint256 bid) public {\r\n        require(listAuctions[auctionId].expirationDate > now, \"Auction is closed\");\r\n        require(balances[msg.sender] >= bid, \"Sender has not enough credit on balance\");\r\n        require(bid > listAuctions[auctionId].currentPrice, \"Bid is lower than current auction price\");\r\n        balances[msg.sender] -= bid;\r\n        balances[listAuctions[auctionId].owner] += (bid - listAuctions[auctionId].currentPrice);\r\n        balances[listAuctions[auctionId].lastBuyer] += listAuctions[auctionId].currentPrice;\r\n        listAuctions[auctionId] = Auction(true, listAuctions[auctionId].animalId, bid, listAuctions[auctionId].expirationDate, listAuctions[auctionId].owner, msg.sender);\r\n    }\r\n\r\n    function claimAuction(uint256 auctionId) public {\r\n        require(msg.sender == listAuctions[auctionId].lastBuyer, \"Sender is not the highest bider\");\r\n        require(listAuctions[auctionId].expirationDate < now, \"Auction is not closed\");\r\n        listAnimals[listAuctions[auctionId].animalId] = Animal(msg.sender, false, 0);\r\n    }\r\n}\r\n",
  "sourcePath": "C:\\Users\\franc\\Documents\\ESILV\\A5\\Blockchain Prog\\TD3\\main\\contracts\\DogToken\\DogToken.sol",
  "compiler": {
    "name": "solc",
    "version": "0.5.13+commit.5b0b510c.Emscripten.clang"
  },
  "schemaVersion": "3.0.11",
  "updatedAt": "2019-11-28T16:29:24.866Z",
  "devdoc": {
    "methods": {}
  },
  "userdoc": {
    "methods": {}
  }
}